{
  "_format": "hh-sol-artifact-1",
  "contractName": "RentAgriment",
  "sourceName": "contracts/RentAgreement.sol",
  "abi": [
    {
      "inputs": [],
      "stateMutability": "nonpayable",
      "type": "constructor"
    },
    {
      "inputs": [],
      "name": "getMemos",
      "outputs": [
        {
          "components": [
            {
              "internalType": "string",
              "name": "name",
              "type": "string"
            },
            {
              "internalType": "string",
              "name": "agreementDetail",
              "type": "string"
            },
            {
              "internalType": "string",
              "name": "tAndC",
              "type": "string"
            },
            {
              "internalType": "string",
              "name": "duration",
              "type": "string"
            },
            {
              "internalType": "uint256",
              "name": "timestamp",
              "type": "uint256"
            },
            {
              "internalType": "address",
              "name": "from",
              "type": "address"
            }
          ],
          "internalType": "struct RentAgriment.Memo[]",
          "name": "",
          "type": "tuple[]"
        }
      ],
      "stateMutability": "view",
      "type": "function"
    },
    {
      "inputs": [
        {
          "internalType": "string",
          "name": "name",
          "type": "string"
        },
        {
          "internalType": "string",
          "name": "agreementDetail",
          "type": "string"
        },
        {
          "internalType": "string",
          "name": "tAndC",
          "type": "string"
        },
        {
          "internalType": "string",
          "name": "duration",
          "type": "string"
        }
      ],
      "name": "payRentAgreement",
      "outputs": [],
      "stateMutability": "payable",
      "type": "function"
    }
  ],
  "bytecode": "0x608060405234801561001057600080fd5b50600180546001600160a01b03191633179055610838806100326000396000f3fe6080604052600436106100295760003560e01c8063724f425f1461002e578063865c517214610043575b600080fd5b61004161003c3660046105e6565b61006e565b005b34801561004f57600080fd5b506100586101fc565b60405161006591906106d9565b60405180910390f35b600034116100c25760405162461bcd60e51b815260206004820152601f60248201527f506c65617365205061792047726561746572207468616e204f20657468657200604482015260640160405180910390fd5b6001546040516001600160a01b03909116903480156108fc02916000818181858888f193505050501580156100fb573d6000803e3d6000fd5b506040805160c0810182528581526020808201869052918101849052606081018390524260808201523360a08201526000805460018101825590805281518051929360069092027f290decd9548b62a8d60345a988386fc84ba6bc95484008f6362f93160ef3e563019261017292849201906104c6565b50602082810151805161018b92600185019201906104c6565b50604082015180516101a79160028401916020909101906104c6565b50606082015180516101c39160038401916020909101906104c6565b506080820151600482015560a090910151600590910180546001600160a01b0319166001600160a01b0390921691909117905550505050565b60606000805480602002602001604051908101604052809291908181526020016000905b828210156104bd57838290600052602060002090600602016040518060c0016040529081600082018054610253906107b1565b80601f016020809104026020016040519081016040528092919081815260200182805461027f906107b1565b80156102cc5780601f106102a1576101008083540402835291602001916102cc565b820191906000526020600020905b8154815290600101906020018083116102af57829003601f168201915b505050505081526020016001820180546102e5906107b1565b80601f0160208091040260200160405190810160405280929190818152602001828054610311906107b1565b801561035e5780601f106103335761010080835404028352916020019161035e565b820191906000526020600020905b81548152906001019060200180831161034157829003601f168201915b50505050508152602001600282018054610377906107b1565b80601f01602080910402602001604051908101604052809291908181526020018280546103a3906107b1565b80156103f05780601f106103c5576101008083540402835291602001916103f0565b820191906000526020600020905b8154815290600101906020018083116103d357829003601f168201915b50505050508152602001600382018054610409906107b1565b80601f0160208091040260200160405190810160405280929190818152602001828054610435906107b1565b80156104825780601f1061045757610100808354040283529160200191610482565b820191906000526020600020905b81548152906001019060200180831161046557829003601f168201915b505050918352505060048201546020808301919091526005909201546001600160a01b03166040909101529082526001929092019101610220565b50505050905090565b8280546104d2906107b1565b90600052602060002090601f0160209004810192826104f4576000855561053a565b82601f1061050d57805160ff191683800117855561053a565b8280016001018555821561053a579182015b8281111561053a57825182559160200191906001019061051f565b5061054692915061054a565b5090565b5b80821115610546576000815560010161054b565b600082601f83011261056f578081fd5b813567ffffffffffffffff8082111561058a5761058a6107ec565b604051601f8301601f19908116603f011681019082821181831017156105b2576105b26107ec565b816040528381528660208588010111156105ca578485fd5b8360208701602083013792830160200193909352509392505050565b600080600080608085870312156105fb578384fd5b843567ffffffffffffffff80821115610612578586fd5b61061e8883890161055f565b95506020870135915080821115610633578485fd5b61063f8883890161055f565b94506040870135915080821115610654578384fd5b6106608883890161055f565b93506060870135915080821115610675578283fd5b506106828782880161055f565b91505092959194509250565b60008151808452815b818110156106b357602081850181015186830182015201610697565b818111156106c45782602083870101525b50601f01601f19169290920160200192915050565b60006020808301818452808551808352604092508286019150828160051b870101848801865b838110156107a357603f19898403018552815160c081518186526107258287018261068e565b915050888201518582038a87015261073d828261068e565b9150508782015185820389870152610755828261068e565b9150506060808301518683038288015261076f838261068e565b6080858101519089015260a0948501516001600160a01b0316949097019390935250505093860193908601906001016106ff565b509098975050505050505050565b600181811c908216806107c557607f821691505b602082108114156107e657634e487b7160e01b600052602260045260246000fd5b50919050565b634e487b7160e01b600052604160045260246000fdfea26469706673582212206989ac4b9ac2e0f3d6ada63dc06e4184831aa7de5b8bc68a38d5631ef6466a0a64736f6c63430008040033",
  "linkReferences": {},
  "deployedLinkReferences": {}
}